:030000000208DC17
:0C08DC00787FE4F6D8FD75810D0208005D
:0A08A000D2B0C2B1D2B27F017E00D7
:1008AA00E4FDFCC3ED9FEC9E5015E4FBFA0BBB0084
:0F08BA00010ABA04F8BBFBF50DBD00010C80E488
:0108C900220C
:10080000D2B4C2B31208A6D2B31208AAC2B4120854
:10081000AA7F381208F31208A67F0C1208F31208F8
:10082000A67F801208F31208A67F541208FD120852
:10083000A67F451208FD1208A67F4D1208FD12087A
:10084000A67F501208FD1208A67F3A1208FD120872
:10085000A67F2D1208FD1208A6E59075F064848E1F
:100860000CF50DFF1208E81208A6AE0CAF0D7C00C7
:100870007D0A1208CAE59075F00A84C39FF509EC59
:100880009EF508AF091208E81208A6E59075F00A6F
:1008900084AFF08E0A8F0B1208E81208A602080037
:0A08F3008FA0C2B01208A2C2B22208
:0B08E80074302FF5A01208A0C2B2224D
:0808FD008FA01208A0C2B22274
:1008CA00EF8DF0A4A8F0CF8CF0A428CE8DF0A42E42
:0208DA00FE22FC
:00000001FF
